:060000000200780200D4AA
:100008000000E2FBEAF2802C0000E0FBEAF080242A
:10001800E6B50202EBF62200E2B50202EBF222009C
:10002800E0B50202EBF02230F6E0A88220F5D3EA30
:10003800C6F582228B822230F6E6A88220F5D98086
:01004800CFE8
:0300D100020049E1
:050049001203D780FE48
:1000D400C0E0C082C08390F00074AAF0A37411F051
:1000E400A374CCF0A374EEF090E690E4F00090E6F4
:1000F400917405F0750D01D083D082D0E002004EDA
:10010400AC82AD83AEF0FF8C008D018E028F031C98
:10011400BCFF091DBDFF051EBEFF011FE8494A4B78
:1001240060107A2C7B01001ABAFF011BEA4B70F6AF
:1001340080D52290E60B7403F00090E610E4F00002
:1001440090E611E4F00090E613E4F00090E614E485
:10015400F00090E615E4F00090E61274E8F00090E8
:10016400E618E4F00090E6047480F00090E604746D
:1001740002F00090E604E4F00090E6207402F0003F
:1001840090E621E4F00090E6187408F00090E60987
:100194007404F00090E6017440F0002290E60474C8
:1001A40080F00090E6047402F00090E604E4F000AD
:1001B40090E6017443F000750E012290E60174404C
:1001C400F000750E002290E6BCE0FFA3E0FD7E0087
:1001D4008F047F00EE4CFEED4FFF90E6B9E0FDBDCD
:1001E400B303020389BDB702805DBDBB028026BD97
:1001F400C1030202EABDC203020286BDC8030202B1
:1002040096BDCA02806CBDCD030202CABDD00302F2
:100214000337020393C007C0061204AFAD82D006B1
:10022400D007BD0200401C90E740E0FC7D00A3E045
:100234007A004DF513EA4CF5148E118F128508825D
:100244001206B4758201228E158F16751740751823
:10025400E77519008508821206F2E582700790E7B7
:1002640040E4F0A3F090E68AE4F0A37402F075820F
:100274000122751A10751B009007C312045E758263
:100284000122751A0A751B009007B912045E758263
:1002940001221204AFAF82BF0100402690E740E084
:1002A400FFBF01028005BF0212800890E600740AB5
:1002B400F0800E90E6007412F0800690E60074025E
:1002C400F000758201221204AFAF82BF0100401218
:1002D40090E740E060047F0980027F0890E618EF11
:1002E400F000758201221204AFAF82BF0400403FC8
:1002F40090E741E0FF7E008E048F057F00A3E0F8C5
:1003040079007A008A0389028801E44207E94206F7
:10031400EA4205EB420490E743E0F8E4F9FAFBE82B
:100324004FF509E94EF50AEA4DF50BEB4CF50C7562
:1003340082012290E740E508F0A3E4F07F02FEBFCB
:10034400FE00502FBE0E00502A8F82C007C0061236
:1003540006A2E582D006D00760118E050E74022D28
:100364002440F582E434E7F583EFF08F0574022D21
:10037400FF80CC90E741EEF090E68AE4F0A374109D
:10038400F0758201221204AF1201A0758201227558
:1003940082002243B20843B20275B5F075B000532F
:1003A40080FD900002E4F5F0120104438002900005
:1003B4000AE4F5F00201047508207582201206A2F1
:1003C400E5826001227582301206A2E5826003751F
:1003D40008302290E6007402F00090E680E0440ABF
:1003E400FFF00090E67AE4F012013790E670E04402
:1003F40001FFF00043880190E65D74FFF090001463
:10040400E4F5F012010490E680E054F7F01203974B
:100414001203BB43A88190E65DE0FF30E00990E65B
:100424005D7401F01205EBE50D60EB750D00E50957
:10043400450A450B450C60DEE50E60DA90E6017472
:1004440040F000850982850A83850BF0E50C1201D2
:0A0454000490E6017443F00080BC40
:1007B90099060000000100200000C0181640090039
:0A07C9000000000000000000000026
:10045E00AE82AF8390E6BEE0FDA3E0FB7C008D0292
:10046E007D00EC4AFCEB4DFDC3EC951AED951B504F
:10047E00048C1A8D1B7D00AC1AC3ED9C501A74406F
:10048E002DFAE434E7FBED2EF582E43FF583E49399
:10049E008A828B83F00D80DF90E68AE4F0A3ECF085
:1004AE002290E68AE4F0A3F090E6A0E020E1F99035
:1004BE00E68BE0F5822290E6B9E0FFA3A3E0FEEF23
:1004CE0024F450030205E7EF240A83F582EF24108B
:1004DE0083F583E473D0E3E7E3E7E7FBE7A0B2BC81
:1004EE00CC050505050505040505050505BE010236
:1004FE008017BE02028032BE0302804DBE0602800D
:10050E0018BE0702803302059C751A12751B0090E7
:10051E0007D312045E75820122751A0A751B0090AC
:10052E0007E512045E75820122751A19751B00907B
:10053E0007EF12045E75820122751A19751B009061
:10054E00080812045E7582012290E6BAE0FF600A86
:10055E00BF01028015BF02328020751A04751B0080
:10056E0090082112045E75820122751A0E751B0009
:10057E0090082512045E75820122751A1E751B00E5
:10058E0090083312045E75820122758200227582F4
:10059E00002290E740E50FF090E68AE4F0A304F025
:1005AE007582012290E6BAE0F50F7582012290E77E
:1005BE0040E4F090E68AF0A304F075820122758281
:1005CE00012290E740E4F0A3F090E68AF0A37402D3
:1005DE00F075820122758201227582002290E6B8A2
:1005EE00E0FF530760BF40071201CAAF82800512B9
:1005FE0004C4AF82EF600890E6A0E04480F0229041
:07060E00E6A0E04401F02228
:1007D30012010002FFFFFF40181641090000010249
:1007E30000010A060002FFFFFF4001000902190091
:1007F30001010080FA0904000001FFFFFF00070563
:1008030082020002000907190001010080FA0904AD
:10081300000001FFFFFF0007058202400000040300
:1008230009040E03510048005900430043004400EB
:100833001E035100480059002D0050006F006C004A
:0E08430065004D0061007300740065007200D6
:100615007E207F4E90E678E020E00C1EBEFF011F95
:10062500EE4F70F0F5822275820122AF8290E67856
:100635007480F0E510600674014FFE80028F06900D
:10064500E679EEF0120615E5827003F5822290E652
:1006550078E030E1047F0180027F008F82227E20D6
:100665007F4E90E678E030E6091EBEFF011FEE4F93
:1006750070F02290E6787440F0020663AF8290E64F
:1006850079EFF0120615E5827003F5822290E6787F
:10069500E030E1047F0180027F008F822275100027
:1006A500120630AF82C007120678D0078F822275F6
:1006B5001000120630E582FF60088512821206815D
:1006C500AF82EF6008851182120681AF82EF600864
:1006D500851482120681AF82EF60088513821206A7
:1006E50081AF82C007120678D0078F8222AF82754C
:1006F5001000C007120630E582D007601C851682FF
:10070500C007120681E582D007600E851582C007F5
:10071500120681E582D007700712067875820022DD
:100725007510018F82120630E58270071206787502
:1007350082002290E679E0120615E582700712061E
:10074500787582002290E6787420F0AD17AE18AF68
:1007550019A3E08D828E838FF012079AC007C00619
:10076500C005120615E582D005D006D00770071220
:1007750006787582002290E6787440F00DBD000180
:100785000E90E679E08D828E838FF012079A12061D
:050795006375820122E2
:0600A700E478FFF6D8FD2D
:100085007900E94400601B7A00900851780075A05A
:100095001BE493F2A308B8000205A0D9F4DAF275BF
:0200A500A0FFBA
:10004E00C000A88118C0D0B6001B18B60800401515
:10005E00B62F005010C0E0E65407B406005004E678
:0A006E0054F8F6D0E0D0D0D00032F4
:10079A0020F71130F6138883A88220F509F6A8837A
:0B07AA007583002280FEF280F5F02233
:1000AD007800E84400600A790075A01BE4F309D8D4
:1000BD00FC7800E84400600C7900901B00E4F0A38C
:0400CD00D8FCD9FA88
:0D00780075811B1207B5E582600302004987
:0407B5007582002227
:00000001FF
